{
  "_format": "hh-sol-artifact-1",
  "contractName": "NexusProtocol_v1",
  "sourceName": "contracts/Nexus_v1.sol",
  "abi": [
    {
      "inputs": [
        {
          "internalType": "address",
          "name": "_assetContract",
          "type": "address"
        },
        {
          "internalType": "uint256",
          "name": "_tokenId",
          "type": "uint256"
        },
        {
          "internalType": "uint256",
          "name": "_price",
          "type": "uint256"
        }
      ],
      "name": "createListing",
      "outputs": [],
      "stateMutability": "payable",
      "type": "function"
    },
    {
      "inputs": [],
      "name": "getListedAssets",
      "outputs": [
        {
          "components": [
            {
              "internalType": "address",
              "name": "assetContract",
              "type": "address"
            },
            {
              "internalType": "uint256",
              "name": "tokenId",
              "type": "uint256"
            },
            {
              "internalType": "address payable",
              "name": "seller",
              "type": "address"
            },
            {
              "internalType": "address payable",
              "name": "owner",
              "type": "address"
            },
            {
              "internalType": "uint256",
              "name": "price",
              "type": "uint256"
            },
            {
              "internalType": "bool",
              "name": "listed",
              "type": "bool"
            }
          ],
          "internalType": "struct NexusProtocol_v1.Asset[]",
          "name": "",
          "type": "tuple[]"
        }
      ],
      "stateMutability": "view",
      "type": "function"
    },
    {
      "inputs": [],
      "name": "getMyAssets",
      "outputs": [
        {
          "components": [
            {
              "internalType": "address",
              "name": "assetContract",
              "type": "address"
            },
            {
              "internalType": "uint256",
              "name": "tokenId",
              "type": "uint256"
            },
            {
              "internalType": "address payable",
              "name": "seller",
              "type": "address"
            },
            {
              "internalType": "address payable",
              "name": "owner",
              "type": "address"
            },
            {
              "internalType": "uint256",
              "name": "price",
              "type": "uint256"
            },
            {
              "internalType": "bool",
              "name": "listed",
              "type": "bool"
            }
          ],
          "internalType": "struct NexusProtocol_v1.Asset[]",
          "name": "",
          "type": "tuple[]"
        }
      ],
      "stateMutability": "view",
      "type": "function"
    },
    {
      "inputs": [
        {
          "internalType": "address",
          "name": "_assetContract",
          "type": "address"
        },
        {
          "internalType": "uint256",
          "name": "_tokenId",
          "type": "uint256"
        }
      ],
      "name": "purchaseAsset",
      "outputs": [],
      "stateMutability": "payable",
      "type": "function"
    }
  ],
  "bytecode": "0x608060405234801561001057600080fd5b50610b6d806100206000396000f3fe60806040526004361061003f5760003560e01c806324780c561461004457806347002d1d14610060578063f7e19eff1461008b578063ff811c71146100b6575b600080fd5b61005e600480360381019061005991906107c1565b6100d2565b005b34801561006c57600080fd5b506100756100e1565b6040516100829190610998565b60405180910390f35b34801561009757600080fd5b506100a0610414565b6040516100ad9190610998565b60405180910390f35b6100d060048036038101906100cb91906109ba565b61067c565b005b6100dc600161068a565b505050565b606060006100ef60016106a0565b90506000805b82811015610194573373ffffffffffffffffffffffffffffffffffffffff16600260006001846101259190610a29565b815260200190815260200160002060030160009054906101000a900473ffffffffffffffffffffffffffffffffffffffff1673ffffffffffffffffffffffffffffffffffffffff160361018157818061017d90610a5d565b9250505b808061018c90610a5d565b9150506100f5565b5060008167ffffffffffffffff8111156101b1576101b0610aa5565b5b6040519080825280602002602001820160405280156101ea57816020015b6101d76106ae565b8152602001906001900390816101cf5790505b5090506000805b84811015610409573373ffffffffffffffffffffffffffffffffffffffff16600260006001846102219190610a29565b815260200190815260200160002060030160009054906101000a900473ffffffffffffffffffffffffffffffffffffffff1673ffffffffffffffffffffffffffffffffffffffff16036103f6576002600060018361027f9190610a29565b81526020019081526020016000206040518060c00160405290816000820160009054906101000a900473ffffffffffffffffffffffffffffffffffffffff1673ffffffffffffffffffffffffffffffffffffffff1673ffffffffffffffffffffffffffffffffffffffff168152602001600182015481526020016002820160009054906101000a900473ffffffffffffffffffffffffffffffffffffffff1673ffffffffffffffffffffffffffffffffffffffff1673ffffffffffffffffffffffffffffffffffffffff1681526020016003820160009054906101000a900473ffffffffffffffffffffffffffffffffffffffff1673ffffffffffffffffffffffffffffffffffffffff1673ffffffffffffffffffffffffffffffffffffffff168152602001600482015481526020016005820160009054906101000a900460ff1615151515815250508383815181106103dc576103db610ad4565b5b602002602001018190525081806103f290610a5d565b9250505b808061040190610a5d565b9150506101f1565b508194505050505090565b6060600061042260016106a0565b9050600061043060006106a0565b8261043b9190610b03565b905060008167ffffffffffffffff81111561045957610458610aa5565b5b60405190808252806020026020018201604052801561049257816020015b61047f6106ae565b8152602001906001900390816104775790505b5090506000805b8481101561067157600260006001836104b29190610a29565b815260200190815260200160002060050160009054906101000a900460ff161561065e57600260006001836104e79190610a29565b81526020019081526020016000206040518060c00160405290816000820160009054906101000a900473ffffffffffffffffffffffffffffffffffffffff1673ffffffffffffffffffffffffffffffffffffffff1673ffffffffffffffffffffffffffffffffffffffff168152602001600182015481526020016002820160009054906101000a900473ffffffffffffffffffffffffffffffffffffffff1673ffffffffffffffffffffffffffffffffffffffff1673ffffffffffffffffffffffffffffffffffffffff1681526020016003820160009054906101000a900473ffffffffffffffffffffffffffffffffffffffff1673ffffffffffffffffffffffffffffffffffffffff1673ffffffffffffffffffffffffffffffffffffffff168152602001600482015481526020016005820160009054906101000a900460ff16151515158152505083838151811061064457610643610ad4565b5b6020026020010181905250818061065a90610a5d565b9250505b808061066990610a5d565b915050610499565b508194505050505090565b610686600061068a565b5050565b6001816000016000828254019250508190555050565b600081600001549050919050565b6040518060c00160405280600073ffffffffffffffffffffffffffffffffffffffff16815260200160008152602001600073ffffffffffffffffffffffffffffffffffffffff168152602001600073ffffffffffffffffffffffffffffffffffffffff168152602001600081526020016000151581525090565b600080fd5b600073ffffffffffffffffffffffffffffffffffffffff82169050919050565b60006107588261072d565b9050919050565b6107688161074d565b811461077357600080fd5b50565b6000813590506107858161075f565b92915050565b6000819050919050565b61079e8161078b565b81146107a957600080fd5b50565b6000813590506107bb81610795565b92915050565b6000806000606084860312156107da576107d9610728565b5b60006107e886828701610776565b93505060206107f9868287016107ac565b925050604061080a868287016107ac565b9150509250925092565b600081519050919050565b600082825260208201905092915050565b6000819050602082019050919050565b6108498161074d565b82525050565b6108588161078b565b82525050565b60006108698261072d565b9050919050565b6108798161085e565b82525050565b60008115159050919050565b6108948161087f565b82525050565b60c0820160008201516108b06000850182610840565b5060208201516108c3602085018261084f565b5060408201516108d66040850182610870565b5060608201516108e96060850182610870565b5060808201516108fc608085018261084f565b5060a082015161090f60a085018261088b565b50505050565b6000610921838361089a565b60c08301905092915050565b6000602082019050919050565b600061094582610814565b61094f818561081f565b935061095a83610830565b8060005b8381101561098b5781516109728882610915565b975061097d8361092d565b92505060018101905061095e565b5085935050505092915050565b600060208201905081810360008301526109b2818461093a565b905092915050565b600080604083850312156109d1576109d0610728565b5b60006109df85828601610776565b92505060206109f0858286016107ac565b9150509250929050565b7f4e487b7100000000000000000000000000000000000000000000000000000000600052601160045260246000fd5b6000610a348261078b565b9150610a3f8361078b565b9250828201905080821115610a5757610a566109fa565b5b92915050565b6000610a688261078b565b91507fffffffffffffffffffffffffffffffffffffffffffffffffffffffffffffffff8203610a9a57610a996109fa565b5b600182019050919050565b7f4e487b7100000000000000000000000000000000000000000000000000000000600052604160045260246000fd5b7f4e487b7100000000000000000000000000000000000000000000000000000000600052603260045260246000fd5b6000610b0e8261078b565b9150610b198361078b565b9250828203905081811115610b3157610b306109fa565b5b9291505056fea2646970667358221220f8b2e29f909826c6a797f1952845c13ac1e2f75519e2cac4215877a43c2006cf64736f6c63430008110033",
  "linkReferences": {},
  "deployedLinkReferences": {}
}