{
  "_format": "hh-sol-artifact-1",
  "contractName": "NexusNFT",
  "sourceName": "contracts/NexusNFT.sol",
  "abi": [
    {
      "inputs": [],
      "stateMutability": "nonpayable",
      "type": "constructor"
    },
    {
      "anonymous": false,
      "inputs": [
        {
          "indexed": true,
          "internalType": "address",
          "name": "owner",
          "type": "address"
        },
        {
          "indexed": true,
          "internalType": "address",
          "name": "approved",
          "type": "address"
        },
        {
          "indexed": true,
          "internalType": "uint256",
          "name": "tokenId",
          "type": "uint256"
        }
      ],
      "name": "Approval",
      "type": "event"
    },
    {
      "anonymous": false,
      "inputs": [
        {
          "indexed": true,
          "internalType": "address",
          "name": "owner",
          "type": "address"
        },
        {
          "indexed": true,
          "internalType": "address",
          "name": "operator",
          "type": "address"
        },
        {
          "indexed": false,
          "internalType": "bool",
          "name": "approved",
          "type": "bool"
        }
      ],
      "name": "ApprovalForAll",
      "type": "event"
    },
    {
      "anonymous": false,
      "inputs": [
        {
          "indexed": true,
          "internalType": "address",
          "name": "previousOwner",
          "type": "address"
        },
        {
          "indexed": true,
          "internalType": "address",
          "name": "newOwner",
          "type": "address"
        }
      ],
      "name": "OwnershipTransferred",
      "type": "event"
    },
    {
      "anonymous": false,
      "inputs": [
        {
          "indexed": true,
          "internalType": "address",
          "name": "from",
          "type": "address"
        },
        {
          "indexed": true,
          "internalType": "address",
          "name": "to",
          "type": "address"
        },
        {
          "indexed": true,
          "internalType": "uint256",
          "name": "tokenId",
          "type": "uint256"
        }
      ],
      "name": "Transfer",
      "type": "event"
    },
    {
      "inputs": [
        {
          "internalType": "address",
          "name": "to",
          "type": "address"
        },
        {
          "internalType": "uint256",
          "name": "tokenId",
          "type": "uint256"
        }
      ],
      "name": "approve",
      "outputs": [],
      "stateMutability": "nonpayable",
      "type": "function"
    },
    {
      "inputs": [
        {
          "internalType": "address",
          "name": "owner",
          "type": "address"
        }
      ],
      "name": "balanceOf",
      "outputs": [
        {
          "internalType": "uint256",
          "name": "",
          "type": "uint256"
        }
      ],
      "stateMutability": "view",
      "type": "function"
    },
    {
      "inputs": [],
      "name": "collectionURI",
      "outputs": [
        {
          "internalType": "string",
          "name": "",
          "type": "string"
        }
      ],
      "stateMutability": "view",
      "type": "function"
    },
    {
      "inputs": [
        {
          "internalType": "uint256",
          "name": "tokenId",
          "type": "uint256"
        }
      ],
      "name": "getApproved",
      "outputs": [
        {
          "internalType": "address",
          "name": "",
          "type": "address"
        }
      ],
      "stateMutability": "view",
      "type": "function"
    },
    {
      "inputs": [],
      "name": "getCollectionURI",
      "outputs": [
        {
          "internalType": "string",
          "name": "",
          "type": "string"
        }
      ],
      "stateMutability": "view",
      "type": "function"
    },
    {
      "inputs": [],
      "name": "getLastTokenId",
      "outputs": [
        {
          "internalType": "uint256",
          "name": "",
          "type": "uint256"
        }
      ],
      "stateMutability": "view",
      "type": "function"
    },
    {
      "inputs": [
        {
          "internalType": "address",
          "name": "owner",
          "type": "address"
        },
        {
          "internalType": "address",
          "name": "operator",
          "type": "address"
        }
      ],
      "name": "isApprovedForAll",
      "outputs": [
        {
          "internalType": "bool",
          "name": "",
          "type": "bool"
        }
      ],
      "stateMutability": "view",
      "type": "function"
    },
    {
      "inputs": [
        {
          "internalType": "address",
          "name": "recipient",
          "type": "address"
        },
        {
          "internalType": "string",
          "name": "tokenURI",
          "type": "string"
        }
      ],
      "name": "mintWithTokenURI",
      "outputs": [
        {
          "internalType": "uint256",
          "name": "",
          "type": "uint256"
        }
      ],
      "stateMutability": "nonpayable",
      "type": "function"
    },
    {
      "inputs": [],
      "name": "name",
      "outputs": [
        {
          "internalType": "string",
          "name": "",
          "type": "string"
        }
      ],
      "stateMutability": "view",
      "type": "function"
    },
    {
      "inputs": [],
      "name": "owner",
      "outputs": [
        {
          "internalType": "address",
          "name": "",
          "type": "address"
        }
      ],
      "stateMutability": "view",
      "type": "function"
    },
    {
      "inputs": [
        {
          "internalType": "uint256",
          "name": "tokenId",
          "type": "uint256"
        }
      ],
      "name": "ownerOf",
      "outputs": [
        {
          "internalType": "address",
          "name": "",
          "type": "address"
        }
      ],
      "stateMutability": "view",
      "type": "function"
    },
    {
      "inputs": [],
      "name": "renounceOwnership",
      "outputs": [],
      "stateMutability": "nonpayable",
      "type": "function"
    },
    {
      "inputs": [
        {
          "internalType": "address",
          "name": "from",
          "type": "address"
        },
        {
          "internalType": "address",
          "name": "to",
          "type": "address"
        },
        {
          "internalType": "uint256",
          "name": "tokenId",
          "type": "uint256"
        }
      ],
      "name": "safeTransferFrom",
      "outputs": [],
      "stateMutability": "nonpayable",
      "type": "function"
    },
    {
      "inputs": [
        {
          "internalType": "address",
          "name": "from",
          "type": "address"
        },
        {
          "internalType": "address",
          "name": "to",
          "type": "address"
        },
        {
          "internalType": "uint256",
          "name": "tokenId",
          "type": "uint256"
        },
        {
          "internalType": "bytes",
          "name": "data",
          "type": "bytes"
        }
      ],
      "name": "safeTransferFrom",
      "outputs": [],
      "stateMutability": "nonpayable",
      "type": "function"
    },
    {
      "inputs": [
        {
          "internalType": "address",
          "name": "operator",
          "type": "address"
        },
        {
          "internalType": "bool",
          "name": "approved",
          "type": "bool"
        }
      ],
      "name": "setApprovalForAll",
      "outputs": [],
      "stateMutability": "nonpayable",
      "type": "function"
    },
    {
      "inputs": [
        {
          "internalType": "string",
          "name": "_collectionURI",
          "type": "string"
        }
      ],
      "name": "setCollectionURI",
      "outputs": [],
      "stateMutability": "nonpayable",
      "type": "function"
    },
    {
      "inputs": [
        {
          "internalType": "bytes4",
          "name": "interfaceId",
          "type": "bytes4"
        }
      ],
      "name": "supportsInterface",
      "outputs": [
        {
          "internalType": "bool",
          "name": "",
          "type": "bool"
        }
      ],
      "stateMutability": "view",
      "type": "function"
    },
    {
      "inputs": [],
      "name": "symbol",
      "outputs": [
        {
          "internalType": "string",
          "name": "",
          "type": "string"
        }
      ],
      "stateMutability": "view",
      "type": "function"
    },
    {
      "inputs": [
        {
          "internalType": "uint256",
          "name": "tokenId",
          "type": "uint256"
        }
      ],
      "name": "tokenURI",
      "outputs": [
        {
          "internalType": "string",
          "name": "",
          "type": "string"
        }
      ],
      "stateMutability": "view",
      "type": "function"
    },
    {
      "inputs": [
        {
          "internalType": "address",
          "name": "from",
          "type": "address"
        },
        {
          "internalType": "address",
          "name": "to",
          "type": "address"
        },
        {
          "internalType": "uint256",
          "name": "tokenId",
          "type": "uint256"
        }
      ],
      "name": "transferFrom",
      "outputs": [],
      "stateMutability": "nonpayable",
      "type": "function"
    },
    {
      "inputs": [
        {
          "internalType": "address",
          "name": "newOwner",
          "type": "address"
        }
      ],
      "name": "transferOwnership",
      "outputs": [],
      "stateMutability": "nonpayable",
      "type": "function"
    }
  ],
  "bytecode": "0x60806040523480156200001157600080fd5b506040518060400160405280601281526020017f4e6578757320436f6c6c656374696f6e203300000000000000000000000000008152506040518060400160405280600581526020017f4e4558555300000000000000000000000000000000000000000000000000000081525081600090816200008f919062000412565b508060019081620000a1919062000412565b505050620000c4620000b8620000ca60201b60201c565b620000d260201b60201c565b620004f9565b600033905090565b6000600760009054906101000a900473ffffffffffffffffffffffffffffffffffffffff16905081600760006101000a81548173ffffffffffffffffffffffffffffffffffffffff021916908373ffffffffffffffffffffffffffffffffffffffff1602179055508173ffffffffffffffffffffffffffffffffffffffff168173ffffffffffffffffffffffffffffffffffffffff167f8be0079c531659141344cd1fd0a4f28419497f9722a3daafe3b4186f6b6457e060405160405180910390a35050565b600081519050919050565b7f4e487b7100000000000000000000000000000000000000000000000000000000600052604160045260246000fd5b7f4e487b7100000000000000000000000000000000000000000000000000000000600052602260045260246000fd5b600060028204905060018216806200021a57607f821691505b60208210810362000230576200022f620001d2565b5b50919050565b60008190508160005260206000209050919050565b60006020601f8301049050919050565b600082821b905092915050565b6000600883026200029a7fffffffffffffffffffffffffffffffffffffffffffffffffffffffffffffffff826200025b565b620002a686836200025b565b95508019841693508086168417925050509392505050565b6000819050919050565b6000819050919050565b6000620002f3620002ed620002e784620002be565b620002c8565b620002be565b9050919050565b6000819050919050565b6200030f83620002d2565b620003276200031e82620002fa565b84845462000268565b825550505050565b600090565b6200033e6200032f565b6200034b81848462000304565b505050565b5b8181101562000373576200036760008262000334565b60018101905062000351565b5050565b601f821115620003c2576200038c8162000236565b62000397846200024b565b81016020851015620003a7578190505b620003bf620003b6856200024b565b83018262000350565b50505b505050565b600082821c905092915050565b6000620003e760001984600802620003c7565b1980831691505092915050565b6000620004028383620003d4565b9150826002028217905092915050565b6200041d8262000198565b67ffffffffffffffff811115620004395762000438620001a3565b5b62000445825462000201565b6200045282828562000377565b600060209050601f8311600181146200048a576000841562000475578287015190505b620004818582620003f4565b865550620004f1565b601f1984166200049a8662000236565b60005b82811015620004c4578489015182556001820191506020850194506020810190506200049d565b86831015620004e45784890151620004e0601f891682620003d4565b8355505b6001600288020188555050505b505050505050565b61319680620005096000396000f3fe608060405234801561001057600080fd5b50600436106101375760003560e01c8063715018a6116100b8578063a5097ebf1161007c578063a5097ebf1461033a578063b88d4fde14610358578063c87b56dd14610374578063cfb5bb1f146103a4578063e985e9c5146103c2578063f2fde38b146103f257610137565b8063715018a6146102ba57806383c4c00d146102c45780638da5cb5b146102e257806395d89b4114610300578063a22cb4651461031e57610137565b80632639f460116100ff5780632639f460146101f257806342842e0e1461020e57806345c177821461022a5780636352211e1461025a57806370a082311461028a57610137565b806301ffc9a71461013c57806306fdde031461016c578063081812fc1461018a578063095ea7b3146101ba57806323b872dd146101d6575b600080fd5b61015660048036038101906101519190611ea7565b61040e565b6040516101639190611eef565b60405180910390f35b6101746104f0565b6040516101819190611f9a565b60405180910390f35b6101a4600480360381019061019f9190611ff2565b610582565b6040516101b19190612060565b60405180910390f35b6101d460048036038101906101cf91906120a7565b6105c8565b005b6101f060048036038101906101eb91906120e7565b6106df565b005b61020c6004803603810190610207919061226f565b61073f565b005b610228600480360381019061022391906120e7565b610752565b005b610244600480360381019061023f91906122b8565b610772565b6040516102519190612323565b60405180910390f35b610274600480360381019061026f9190611ff2565b6107aa565b6040516102819190612060565b60405180910390f35b6102a4600480360381019061029f919061233e565b610830565b6040516102b19190612323565b60405180910390f35b6102c26108e7565b005b6102cc6108fb565b6040516102d99190612323565b60405180910390f35b6102ea61090c565b6040516102f79190612060565b60405180910390f35b610308610936565b6040516103159190611f9a565b60405180910390f35b61033860048036038101906103339190612397565b6109c8565b005b6103426109de565b60405161034f9190611f9a565b60405180910390f35b610372600480360381019061036d9190612478565b610a6c565b005b61038e60048036038101906103899190611ff2565b610ace565b60405161039b9190611f9a565b60405180910390f35b6103ac610be0565b6040516103b99190611f9a565b60405180910390f35b6103dc60048036038101906103d791906124fb565b610c72565b6040516103e99190611eef565b60405180910390f35b61040c6004803603810190610407919061233e565b610d06565b005b60007f80ac58cd000000000000000000000000000000000000000000000000000000007bffffffffffffffffffffffffffffffffffffffffffffffffffffffff1916827bffffffffffffffffffffffffffffffffffffffffffffffffffffffff191614806104d957507f5b5e139f000000000000000000000000000000000000000000000000000000007bffffffffffffffffffffffffffffffffffffffffffffffffffffffff1916827bffffffffffffffffffffffffffffffffffffffffffffffffffffffff1916145b806104e957506104e882610d89565b5b9050919050565b6060600080546104ff9061256a565b80601f016020809104026020016040519081016040528092919081815260200182805461052b9061256a565b80156105785780601f1061054d57610100808354040283529160200191610578565b820191906000526020600020905b81548152906001019060200180831161055b57829003601f168201915b5050505050905090565b600061058d82610df3565b6004600083815260200190815260200160002060009054906101000a900473ffffffffffffffffffffffffffffffffffffffff169050919050565b60006105d3826107aa565b90508073ffffffffffffffffffffffffffffffffffffffff168373ffffffffffffffffffffffffffffffffffffffff1603610643576040517f08c379a000000000000000000000000000000000000000000000000000000000815260040161063a9061260d565b60405180910390fd5b8073ffffffffffffffffffffffffffffffffffffffff16610662610e3e565b73ffffffffffffffffffffffffffffffffffffffff16148061069157506106908161068b610e3e565b610c72565b5b6106d0576040517f08c379a00000000000000000000000000000000000000000000000000000000081526004016106c79061269f565b60405180910390fd5b6106da8383610e46565b505050565b6106f06106ea610e3e565b82610eff565b61072f576040517f08c379a000000000000000000000000000000000000000000000000000000000815260040161072690612731565b60405180910390fd5b61073a838383610f94565b505050565b806009908161074e91906128fd565b5050565b61076d83838360405180602001604052806000815250610a6c565b505050565b600061077e600861128d565b600061078a60086112a3565b905061079684826112b1565b6107a081846114ce565b8091505092915050565b6000806107b68361153b565b9050600073ffffffffffffffffffffffffffffffffffffffff168173ffffffffffffffffffffffffffffffffffffffff1603610827576040517f08c379a000000000000000000000000000000000000000000000000000000000815260040161081e90612a1b565b60405180910390fd5b80915050919050565b60008073ffffffffffffffffffffffffffffffffffffffff168273ffffffffffffffffffffffffffffffffffffffff16036108a0576040517f08c379a000000000000000000000000000000000000000000000000000000000815260040161089790612aad565b60405180910390fd5b600360008373ffffffffffffffffffffffffffffffffffffffff1673ffffffffffffffffffffffffffffffffffffffff168152602001908152602001600020549050919050565b6108ef611578565b6108f960006115f6565b565b600061090760086112a3565b905090565b6000600760009054906101000a900473ffffffffffffffffffffffffffffffffffffffff16905090565b6060600180546109459061256a565b80601f01602080910402602001604051908101604052809291908181526020018280546109719061256a565b80156109be5780601f10610993576101008083540402835291602001916109be565b820191906000526020600020905b8154815290600101906020018083116109a157829003601f168201915b5050505050905090565b6109da6109d3610e3e565b83836116bc565b5050565b600980546109eb9061256a565b80601f0160208091040260200160405190810160405280929190818152602001828054610a179061256a565b8015610a645780601f10610a3957610100808354040283529160200191610a64565b820191906000526020600020905b815481529060010190602001808311610a4757829003601f168201915b505050505081565b610a7d610a77610e3e565b83610eff565b610abc576040517f08c379a0000000000000000000000000000000000000000000000000000000008152600401610ab390612731565b60405180910390fd5b610ac884848484611828565b50505050565b6060610ad982610df3565b6000600660008481526020019081526020016000208054610af99061256a565b80601f0160208091040260200160405190810160405280929190818152602001828054610b259061256a565b8015610b725780601f10610b4757610100808354040283529160200191610b72565b820191906000526020600020905b815481529060010190602001808311610b5557829003601f168201915b505050505090506000610b83611884565b90506000815103610b98578192505050610bdb565b600082511115610bcd578082604051602001610bb5929190612b09565b60405160208183030381529060405292505050610bdb565b610bd68461189b565b925050505b919050565b606060098054610bef9061256a565b80601f0160208091040260200160405190810160405280929190818152602001828054610c1b9061256a565b8015610c685780601f10610c3d57610100808354040283529160200191610c68565b820191906000526020600020905b815481529060010190602001808311610c4b57829003601f168201915b5050505050905090565b6000600560008473ffffffffffffffffffffffffffffffffffffffff1673ffffffffffffffffffffffffffffffffffffffff16815260200190815260200160002060008373ffffffffffffffffffffffffffffffffffffffff1673ffffffffffffffffffffffffffffffffffffffff16815260200190815260200160002060009054906101000a900460ff16905092915050565b610d0e611578565b600073ffffffffffffffffffffffffffffffffffffffff168173ffffffffffffffffffffffffffffffffffffffff1603610d7d576040517f08c379a0000000000000000000000000000000000000000000000000000000008152600401610d7490612b9f565b60405180910390fd5b610d86816115f6565b50565b60007f01ffc9a7000000000000000000000000000000000000000000000000000000007bffffffffffffffffffffffffffffffffffffffffffffffffffffffff1916827bffffffffffffffffffffffffffffffffffffffffffffffffffffffff1916149050919050565b610dfc81611903565b610e3b576040517f08c379a0000000000000000000000000000000000000000000000000000000008152600401610e3290612a1b565b60405180910390fd5b50565b600033905090565b816004600083815260200190815260200160002060006101000a81548173ffffffffffffffffffffffffffffffffffffffff021916908373ffffffffffffffffffffffffffffffffffffffff160217905550808273ffffffffffffffffffffffffffffffffffffffff16610eb9836107aa565b73ffffffffffffffffffffffffffffffffffffffff167f8c5be1e5ebec7d5bd14f71427d1e84f3dd0314c0f7b2291e5b200ac8c7c3b92560405160405180910390a45050565b600080610f0b836107aa565b90508073ffffffffffffffffffffffffffffffffffffffff168473ffffffffffffffffffffffffffffffffffffffff161480610f4d5750610f4c8185610c72565b5b80610f8b57508373ffffffffffffffffffffffffffffffffffffffff16610f7384610582565b73ffffffffffffffffffffffffffffffffffffffff16145b91505092915050565b8273ffffffffffffffffffffffffffffffffffffffff16610fb4826107aa565b73ffffffffffffffffffffffffffffffffffffffff161461100a576040517f08c379a000000000000000000000000000000000000000000000000000000000815260040161100190612c31565b60405180910390fd5b600073ffffffffffffffffffffffffffffffffffffffff168273ffffffffffffffffffffffffffffffffffffffff1603611079576040517f08c379a000000000000000000000000000000000000000000000000000000000815260040161107090612cc3565b60405180910390fd5b6110868383836001611944565b8273ffffffffffffffffffffffffffffffffffffffff166110a6826107aa565b73ffffffffffffffffffffffffffffffffffffffff16146110fc576040517f08c379a00000000000000000000000000000000000000000000000000000000081526004016110f390612c31565b60405180910390fd5b6004600082815260200190815260200160002060006101000a81549073ffffffffffffffffffffffffffffffffffffffff02191690556001600360008573ffffffffffffffffffffffffffffffffffffffff1673ffffffffffffffffffffffffffffffffffffffff168152602001908152602001600020600082825403925050819055506001600360008473ffffffffffffffffffffffffffffffffffffffff1673ffffffffffffffffffffffffffffffffffffffff16815260200190815260200160002060008282540192505081905550816002600083815260200190815260200160002060006101000a81548173ffffffffffffffffffffffffffffffffffffffff021916908373ffffffffffffffffffffffffffffffffffffffff160217905550808273ffffffffffffffffffffffffffffffffffffffff168473ffffffffffffffffffffffffffffffffffffffff167fddf252ad1be2c89b69c2b068fc378daa952ba7f163c4a11628f55a4df523b3ef60405160405180910390a46112888383836001611a6a565b505050565b6001816000016000828254019250508190555050565b600081600001549050919050565b600073ffffffffffffffffffffffffffffffffffffffff168273ffffffffffffffffffffffffffffffffffffffff1603611320576040517f08c379a000000000000000000000000000000000000000000000000000000000815260040161131790612d2f565b60405180910390fd5b61132981611903565b15611369576040517f08c379a000000000000000000000000000000000000000000000000000000000815260040161136090612d9b565b60405180910390fd5b611377600083836001611944565b61138081611903565b156113c0576040517f08c379a00000000000000000000000000000000000000000000000000000000081526004016113b790612d9b565b60405180910390fd5b6001600360008473ffffffffffffffffffffffffffffffffffffffff1673ffffffffffffffffffffffffffffffffffffffff16815260200190815260200160002060008282540192505081905550816002600083815260200190815260200160002060006101000a81548173ffffffffffffffffffffffffffffffffffffffff021916908373ffffffffffffffffffffffffffffffffffffffff160217905550808273ffffffffffffffffffffffffffffffffffffffff16600073ffffffffffffffffffffffffffffffffffffffff167fddf252ad1be2c89b69c2b068fc378daa952ba7f163c4a11628f55a4df523b3ef60405160405180910390a46114ca600083836001611a6a565b5050565b6114d782611903565b611516576040517f08c379a000000000000000000000000000000000000000000000000000000000815260040161150d90612e2d565b60405180910390fd5b8060066000848152602001908152602001600020908161153691906128fd565b505050565b60006002600083815260200190815260200160002060009054906101000a900473ffffffffffffffffffffffffffffffffffffffff169050919050565b611580610e3e565b73ffffffffffffffffffffffffffffffffffffffff1661159e61090c565b73ffffffffffffffffffffffffffffffffffffffff16146115f4576040517f08c379a00000000000000000000000000000000000000000000000000000000081526004016115eb90612e99565b60405180910390fd5b565b6000600760009054906101000a900473ffffffffffffffffffffffffffffffffffffffff16905081600760006101000a81548173ffffffffffffffffffffffffffffffffffffffff021916908373ffffffffffffffffffffffffffffffffffffffff1602179055508173ffffffffffffffffffffffffffffffffffffffff168173ffffffffffffffffffffffffffffffffffffffff167f8be0079c531659141344cd1fd0a4f28419497f9722a3daafe3b4186f6b6457e060405160405180910390a35050565b8173ffffffffffffffffffffffffffffffffffffffff168373ffffffffffffffffffffffffffffffffffffffff160361172a576040517f08c379a000000000000000000000000000000000000000000000000000000000815260040161172190612f05565b60405180910390fd5b80600560008573ffffffffffffffffffffffffffffffffffffffff1673ffffffffffffffffffffffffffffffffffffffff16815260200190815260200160002060008473ffffffffffffffffffffffffffffffffffffffff1673ffffffffffffffffffffffffffffffffffffffff16815260200190815260200160002060006101000a81548160ff0219169083151502179055508173ffffffffffffffffffffffffffffffffffffffff168373ffffffffffffffffffffffffffffffffffffffff167f17307eab39ab6107e8899845ad3d59bd9653f200f220920489ca2b5937696c318360405161181b9190611eef565b60405180910390a3505050565b611833848484610f94565b61183f84848484611a70565b61187e576040517f08c379a000000000000000000000000000000000000000000000000000000000815260040161187590612f97565b60405180910390fd5b50505050565b606060405180602001604052806000815250905090565b60606118a682610df3565b60006118b0611884565b905060008151116118d057604051806020016040528060008152506118fb565b806118da84611bf7565b6040516020016118eb929190612b09565b6040516020818303038152906040525b915050919050565b60008073ffffffffffffffffffffffffffffffffffffffff166119258361153b565b73ffffffffffffffffffffffffffffffffffffffff1614159050919050565b6001811115611a6457600073ffffffffffffffffffffffffffffffffffffffff168473ffffffffffffffffffffffffffffffffffffffff16146119d85780600360008673ffffffffffffffffffffffffffffffffffffffff1673ffffffffffffffffffffffffffffffffffffffff16815260200190815260200160002060008282546119d09190612fe6565b925050819055505b600073ffffffffffffffffffffffffffffffffffffffff168373ffffffffffffffffffffffffffffffffffffffff1614611a635780600360008573ffffffffffffffffffffffffffffffffffffffff1673ffffffffffffffffffffffffffffffffffffffff1681526020019081526020016000206000828254611a5b919061301a565b925050819055505b5b50505050565b50505050565b6000611a918473ffffffffffffffffffffffffffffffffffffffff16611cc5565b15611bea578373ffffffffffffffffffffffffffffffffffffffff1663150b7a02611aba610e3e565b8786866040518563ffffffff1660e01b8152600401611adc94939291906130a3565b6020604051808303816000875af1925050508015611b1857506040513d601f19601f82011682018060405250810190611b159190613104565b60015b611b9a573d8060008114611b48576040519150601f19603f3d011682016040523d82523d6000602084013e611b4d565b606091505b506000815103611b92576040517f08c379a0000000000000000000000000000000000000000000000000000000008152600401611b8990612f97565b60405180910390fd5b805181602001fd5b63150b7a0260e01b7bffffffffffffffffffffffffffffffffffffffffffffffffffffffff1916817bffffffffffffffffffffffffffffffffffffffffffffffffffffffff191614915050611bef565b600190505b949350505050565b606060006001611c0684611ce8565b01905060008167ffffffffffffffff811115611c2557611c24612144565b5b6040519080825280601f01601f191660200182016040528015611c575781602001600182028036833780820191505090505b509050600082602001820190505b600115611cba578080600190039150507f3031323334353637383961626364656600000000000000000000000000000000600a86061a8153600a8581611cae57611cad613131565b5b04945060008503611c65575b819350505050919050565b6000808273ffffffffffffffffffffffffffffffffffffffff163b119050919050565b600080600090507a184f03e93ff9f4daa797ed6e38ed64bf6a1f0100000000000000008310611d46577a184f03e93ff9f4daa797ed6e38ed64bf6a1f0100000000000000008381611d3c57611d3b613131565b5b0492506040810190505b6d04ee2d6d415b85acef81000000008310611d83576d04ee2d6d415b85acef81000000008381611d7957611d78613131565b5b0492506020810190505b662386f26fc100008310611db257662386f26fc100008381611da857611da7613131565b5b0492506010810190505b6305f5e1008310611ddb576305f5e1008381611dd157611dd0613131565b5b0492506008810190505b6127108310611e00576127108381611df657611df5613131565b5b0492506004810190505b60648310611e235760648381611e1957611e18613131565b5b0492506002810190505b600a8310611e32576001810190505b80915050919050565b6000604051905090565b600080fd5b600080fd5b60007fffffffff0000000000000000000000000000000000000000000000000000000082169050919050565b611e8481611e4f565b8114611e8f57600080fd5b50565b600081359050611ea181611e7b565b92915050565b600060208284031215611ebd57611ebc611e45565b5b6000611ecb84828501611e92565b91505092915050565b60008115159050919050565b611ee981611ed4565b82525050565b6000602082019050611f046000830184611ee0565b92915050565b600081519050919050565b600082825260208201905092915050565b60005b83811015611f44578082015181840152602081019050611f29565b60008484015250505050565b6000601f19601f8301169050919050565b6000611f6c82611f0a565b611f768185611f15565b9350611f86818560208601611f26565b611f8f81611f50565b840191505092915050565b60006020820190508181036000830152611fb48184611f61565b905092915050565b6000819050919050565b611fcf81611fbc565b8114611fda57600080fd5b50565b600081359050611fec81611fc6565b92915050565b60006020828403121561200857612007611e45565b5b600061201684828501611fdd565b91505092915050565b600073ffffffffffffffffffffffffffffffffffffffff82169050919050565b600061204a8261201f565b9050919050565b61205a8161203f565b82525050565b60006020820190506120756000830184612051565b92915050565b6120848161203f565b811461208f57600080fd5b50565b6000813590506120a18161207b565b92915050565b600080604083850312156120be576120bd611e45565b5b60006120cc85828601612092565b92505060206120dd85828601611fdd565b9150509250929050565b600080600060608486031215612100576120ff611e45565b5b600061210e86828701612092565b935050602061211f86828701612092565b925050604061213086828701611fdd565b9150509250925092565b600080fd5b600080fd5b7f4e487b7100000000000000000000000000000000000000000000000000000000600052604160045260246000fd5b61217c82611f50565b810181811067ffffffffffffffff8211171561219b5761219a612144565b5b80604052505050565b60006121ae611e3b565b90506121ba8282612173565b919050565b600067ffffffffffffffff8211156121da576121d9612144565b5b6121e382611f50565b9050602081019050919050565b82818337600083830152505050565b600061221261220d846121bf565b6121a4565b90508281526020810184848401111561222e5761222d61213f565b5b6122398482856121f0565b509392505050565b600082601f8301126122565761225561213a565b5b81356122668482602086016121ff565b91505092915050565b60006020828403121561228557612284611e45565b5b600082013567ffffffffffffffff8111156122a3576122a2611e4a565b5b6122af84828501612241565b91505092915050565b600080604083850312156122cf576122ce611e45565b5b60006122dd85828601612092565b925050602083013567ffffffffffffffff8111156122fe576122fd611e4a565b5b61230a85828601612241565b9150509250929050565b61231d81611fbc565b82525050565b60006020820190506123386000830184612314565b92915050565b60006020828403121561235457612353611e45565b5b600061236284828501612092565b91505092915050565b61237481611ed4565b811461237f57600080fd5b50565b6000813590506123918161236b565b92915050565b600080604083850312156123ae576123ad611e45565b5b60006123bc85828601612092565b92505060206123cd85828601612382565b9150509250929050565b600067ffffffffffffffff8211156123f2576123f1612144565b5b6123fb82611f50565b9050602081019050919050565b600061241b612416846123d7565b6121a4565b9050828152602081018484840111156124375761243661213f565b5b6124428482856121f0565b509392505050565b600082601f83011261245f5761245e61213a565b5b813561246f848260208601612408565b91505092915050565b6000806000806080858703121561249257612491611e45565b5b60006124a087828801612092565b94505060206124b187828801612092565b93505060406124c287828801611fdd565b925050606085013567ffffffffffffffff8111156124e3576124e2611e4a565b5b6124ef8782880161244a565b91505092959194509250565b6000806040838503121561251257612511611e45565b5b600061252085828601612092565b925050602061253185828601612092565b9150509250929050565b7f4e487b7100000000000000000000000000000000000000000000000000000000600052602260045260246000fd5b6000600282049050600182168061258257607f821691505b6020821081036125955761259461253b565b5b50919050565b7f4552433732313a20617070726f76616c20746f2063757272656e74206f776e6560008201527f7200000000000000000000000000000000000000000000000000000000000000602082015250565b60006125f7602183611f15565b91506126028261259b565b604082019050919050565b60006020820190508181036000830152612626816125ea565b9050919050565b7f4552433732313a20617070726f76652063616c6c6572206973206e6f7420746f60008201527f6b656e206f776e6572206f7220617070726f76656420666f7220616c6c000000602082015250565b6000612689603d83611f15565b91506126948261262d565b604082019050919050565b600060208201905081810360008301526126b88161267c565b9050919050565b7f4552433732313a2063616c6c6572206973206e6f7420746f6b656e206f776e6560008201527f72206f7220617070726f76656400000000000000000000000000000000000000602082015250565b600061271b602d83611f15565b9150612726826126bf565b604082019050919050565b6000602082019050818103600083015261274a8161270e565b9050919050565b60008190508160005260206000209050919050565b60006020601f8301049050919050565b600082821b905092915050565b6000600883026127b37fffffffffffffffffffffffffffffffffffffffffffffffffffffffffffffffff82612776565b6127bd8683612776565b95508019841693508086168417925050509392505050565b6000819050919050565b60006127fa6127f56127f084611fbc565b6127d5565b611fbc565b9050919050565b6000819050919050565b612814836127df565b61282861282082612801565b848454612783565b825550505050565b600090565b61283d612830565b61284881848461280b565b505050565b5b8181101561286c57612861600082612835565b60018101905061284e565b5050565b601f8211156128b15761288281612751565b61288b84612766565b8101602085101561289a578190505b6128ae6128a685612766565b83018261284d565b50505b505050565b600082821c905092915050565b60006128d4600019846008026128b6565b1980831691505092915050565b60006128ed83836128c3565b9150826002028217905092915050565b61290682611f0a565b67ffffffffffffffff81111561291f5761291e612144565b5b612929825461256a565b612934828285612870565b600060209050601f8311600181146129675760008415612955578287015190505b61295f85826128e1565b8655506129c7565b601f19841661297586612751565b60005b8281101561299d57848901518255600182019150602085019450602081019050612978565b868310156129ba57848901516129b6601f8916826128c3565b8355505b6001600288020188555050505b505050505050565b7f4552433732313a20696e76616c696420746f6b656e2049440000000000000000600082015250565b6000612a05601883611f15565b9150612a10826129cf565b602082019050919050565b60006020820190508181036000830152612a34816129f8565b9050919050565b7f4552433732313a2061646472657373207a65726f206973206e6f74206120766160008201527f6c6964206f776e65720000000000000000000000000000000000000000000000602082015250565b6000612a97602983611f15565b9150612aa282612a3b565b604082019050919050565b60006020820190508181036000830152612ac681612a8a565b9050919050565b600081905092915050565b6000612ae382611f0a565b612aed8185612acd565b9350612afd818560208601611f26565b80840191505092915050565b6000612b158285612ad8565b9150612b218284612ad8565b91508190509392505050565b7f4f776e61626c653a206e6577206f776e657220697320746865207a65726f206160008201527f6464726573730000000000000000000000000000000000000000000000000000602082015250565b6000612b89602683611f15565b9150612b9482612b2d565b604082019050919050565b60006020820190508181036000830152612bb881612b7c565b9050919050565b7f4552433732313a207472616e736665722066726f6d20696e636f72726563742060008201527f6f776e6572000000000000000000000000000000000000000000000000000000602082015250565b6000612c1b602583611f15565b9150612c2682612bbf565b604082019050919050565b60006020820190508181036000830152612c4a81612c0e565b9050919050565b7f4552433732313a207472616e7366657220746f20746865207a65726f2061646460008201527f7265737300000000000000000000000000000000000000000000000000000000602082015250565b6000612cad602483611f15565b9150612cb882612c51565b604082019050919050565b60006020820190508181036000830152612cdc81612ca0565b9050919050565b7f4552433732313a206d696e7420746f20746865207a65726f2061646472657373600082015250565b6000612d19602083611f15565b9150612d2482612ce3565b602082019050919050565b60006020820190508181036000830152612d4881612d0c565b9050919050565b7f4552433732313a20746f6b656e20616c7265616479206d696e74656400000000600082015250565b6000612d85601c83611f15565b9150612d9082612d4f565b602082019050919050565b60006020820190508181036000830152612db481612d78565b9050919050565b7f45524337323155524953746f726167653a2055524920736574206f66206e6f6e60008201527f6578697374656e7420746f6b656e000000000000000000000000000000000000602082015250565b6000612e17602e83611f15565b9150612e2282612dbb565b604082019050919050565b60006020820190508181036000830152612e4681612e0a565b9050919050565b7f4f776e61626c653a2063616c6c6572206973206e6f7420746865206f776e6572600082015250565b6000612e83602083611f15565b9150612e8e82612e4d565b602082019050919050565b60006020820190508181036000830152612eb281612e76565b9050919050565b7f4552433732313a20617070726f766520746f2063616c6c657200000000000000600082015250565b6000612eef601983611f15565b9150612efa82612eb9565b602082019050919050565b60006020820190508181036000830152612f1e81612ee2565b9050919050565b7f4552433732313a207472616e7366657220746f206e6f6e20455243373231526560008201527f63656976657220696d706c656d656e7465720000000000000000000000000000602082015250565b6000612f81603283611f15565b9150612f8c82612f25565b604082019050919050565b60006020820190508181036000830152612fb081612f74565b9050919050565b7f4e487b7100000000000000000000000000000000000000000000000000000000600052601160045260246000fd5b6000612ff182611fbc565b9150612ffc83611fbc565b925082820390508181111561301457613013612fb7565b5b92915050565b600061302582611fbc565b915061303083611fbc565b925082820190508082111561304857613047612fb7565b5b92915050565b600081519050919050565b600082825260208201905092915050565b60006130758261304e565b61307f8185613059565b935061308f818560208601611f26565b61309881611f50565b840191505092915050565b60006080820190506130b86000830187612051565b6130c56020830186612051565b6130d26040830185612314565b81810360608301526130e4818461306a565b905095945050505050565b6000815190506130fe81611e7b565b92915050565b60006020828403121561311a57613119611e45565b5b6000613128848285016130ef565b91505092915050565b7f4e487b7100000000000000000000000000000000000000000000000000000000600052601260045260246000fdfea2646970667358221220f36d33a0d6f625ad186462c6f59d7221a5bdfff30b73f09d8a970952ea67839964736f6c63430008110033",
  "linkReferences": {},
  "deployedLinkReferences": {}
}