{
  "_format": "hh-sol-artifact-1",
  "contractName": "NexusProtocol",
  "sourceName": "contracts/NexusProtocol.sol",
  "abi": [
    {
      "anonymous": false,
      "inputs": [
        {
          "indexed": true,
          "internalType": "address",
          "name": "previousOwner",
          "type": "address"
        },
        {
          "indexed": true,
          "internalType": "address",
          "name": "newOwner",
          "type": "address"
        }
      ],
      "name": "OwnershipTransferred",
      "type": "event"
    },
    {
      "inputs": [],
      "name": "_listingCompleted",
      "outputs": [
        {
          "internalType": "uint256",
          "name": "",
          "type": "uint256"
        }
      ],
      "stateMutability": "view",
      "type": "function"
    },
    {
      "inputs": [],
      "name": "_listingCount",
      "outputs": [
        {
          "internalType": "uint256",
          "name": "",
          "type": "uint256"
        }
      ],
      "stateMutability": "view",
      "type": "function"
    },
    {
      "inputs": [
        {
          "internalType": "address",
          "name": "_collectionAddress",
          "type": "address"
        },
        {
          "internalType": "uint256",
          "name": "_tokenId",
          "type": "uint256"
        }
      ],
      "name": "cancelListing",
      "outputs": [],
      "stateMutability": "payable",
      "type": "function"
    },
    {
      "inputs": [
        {
          "internalType": "address",
          "name": "_collectionAddress",
          "type": "address"
        },
        {
          "internalType": "uint256",
          "name": "_tokenId",
          "type": "uint256"
        },
        {
          "internalType": "uint256",
          "name": "_price",
          "type": "uint256"
        }
      ],
      "name": "createListing",
      "outputs": [],
      "stateMutability": "nonpayable",
      "type": "function"
    },
    {
      "inputs": [
        {
          "internalType": "address",
          "name": "_collectionAddress",
          "type": "address"
        },
        {
          "internalType": "uint256",
          "name": "_tokenId",
          "type": "uint256"
        }
      ],
      "name": "fulfillListing",
      "outputs": [],
      "stateMutability": "payable",
      "type": "function"
    },
    {
      "inputs": [
        {
          "internalType": "address",
          "name": "_collectionAddress",
          "type": "address"
        },
        {
          "internalType": "uint256",
          "name": "_tokenId",
          "type": "uint256"
        }
      ],
      "name": "getListingBuyer",
      "outputs": [
        {
          "internalType": "address",
          "name": "",
          "type": "address"
        }
      ],
      "stateMutability": "view",
      "type": "function"
    },
    {
      "inputs": [
        {
          "internalType": "address",
          "name": "_collectionAddress",
          "type": "address"
        },
        {
          "internalType": "uint256",
          "name": "_tokenId",
          "type": "uint256"
        }
      ],
      "name": "getListingPrice",
      "outputs": [
        {
          "internalType": "uint256",
          "name": "",
          "type": "uint256"
        }
      ],
      "stateMutability": "view",
      "type": "function"
    },
    {
      "inputs": [
        {
          "internalType": "address",
          "name": "_collectionAddress",
          "type": "address"
        },
        {
          "internalType": "uint256",
          "name": "_tokenId",
          "type": "uint256"
        }
      ],
      "name": "getListingSeller",
      "outputs": [
        {
          "internalType": "address",
          "name": "",
          "type": "address"
        }
      ],
      "stateMutability": "view",
      "type": "function"
    },
    {
      "inputs": [
        {
          "internalType": "address",
          "name": "_collectionAddress",
          "type": "address"
        },
        {
          "internalType": "uint256",
          "name": "_tokenId",
          "type": "uint256"
        }
      ],
      "name": "getListingStatus",
      "outputs": [
        {
          "internalType": "enum NexusProtocol.ListingStatus",
          "name": "",
          "type": "uint8"
        }
      ],
      "stateMutability": "view",
      "type": "function"
    },
    {
      "inputs": [
        {
          "internalType": "address",
          "name": "_collectionAddress",
          "type": "address"
        },
        {
          "internalType": "uint256",
          "name": "_tokenId",
          "type": "uint256"
        }
      ],
      "name": "hasActiveListing",
      "outputs": [
        {
          "internalType": "uint256",
          "name": "",
          "type": "uint256"
        }
      ],
      "stateMutability": "view",
      "type": "function"
    },
    {
      "inputs": [
        {
          "internalType": "bytes32",
          "name": "",
          "type": "bytes32"
        }
      ],
      "name": "listingCatalog",
      "outputs": [
        {
          "internalType": "address",
          "name": "collectionAddress",
          "type": "address"
        },
        {
          "internalType": "uint256",
          "name": "tokenId",
          "type": "uint256"
        },
        {
          "internalType": "uint256",
          "name": "price",
          "type": "uint256"
        },
        {
          "internalType": "address",
          "name": "seller",
          "type": "address"
        },
        {
          "internalType": "address",
          "name": "buyer",
          "type": "address"
        },
        {
          "internalType": "enum NexusProtocol.ListingStatus",
          "name": "status",
          "type": "uint8"
        }
      ],
      "stateMutability": "view",
      "type": "function"
    },
    {
      "inputs": [],
      "name": "owner",
      "outputs": [
        {
          "internalType": "address",
          "name": "",
          "type": "address"
        }
      ],
      "stateMutability": "view",
      "type": "function"
    },
    {
      "inputs": [],
      "name": "renounceOwnership",
      "outputs": [],
      "stateMutability": "nonpayable",
      "type": "function"
    },
    {
      "inputs": [
        {
          "internalType": "address",
          "name": "newOwner",
          "type": "address"
        }
      ],
      "name": "transferOwnership",
      "outputs": [],
      "stateMutability": "nonpayable",
      "type": "function"
    },
    {
      "inputs": [
        {
          "internalType": "address payable",
          "name": "_dest",
          "type": "address"
        }
      ],
      "name": "withdraw",
      "outputs": [],
      "stateMutability": "nonpayable",
      "type": "function"
    },
    {
      "stateMutability": "payable",
      "type": "receive"
    }
  ],
  "bytecode": "0x60806040523480156200001157600080fd5b5062000032620000266200003860201b60201c565b6200004060201b60201c565b62000104565b600033905090565b60008060009054906101000a900473ffffffffffffffffffffffffffffffffffffffff169050816000806101000a81548173ffffffffffffffffffffffffffffffffffffffff021916908373ffffffffffffffffffffffffffffffffffffffff1602179055508173ffffffffffffffffffffffffffffffffffffffff168173ffffffffffffffffffffffffffffffffffffffff167f8be0079c531659141344cd1fd0a4f28419497f9722a3daafe3b4186f6b6457e060405160405180910390a35050565b61295680620001146000396000f3fe6080604052600436106100ec5760003560e01c80637b25b94a1161008a578063a47f439611610059578063a47f439614610304578063b2ddee0614610346578063b85208ee14610362578063f2fde38b1461038d576100f3565b80637b25b94a146102435780637e87044b1461025f5780638da5cb5b1461029c57806392430167146102c7576100f3565b80633eb9d8cf116100c65780633eb9d8cf1461019b57806351cff8d9146101c6578063549f6746146101ef578063715018a61461022c576100f3565b80630102daec146100f857806306d783971461013557806324780c5614610172576100f3565b366100f357005b600080fd5b34801561010457600080fd5b5061011f600480360381019061011a9190611dcb565b6103b6565b60405161012c9190611e1a565b60405180910390f35b34801561014157600080fd5b5061015c60048036038101906101579190611dcb565b6105d1565b6040516101699190611e1a565b60405180910390f35b34801561017e57600080fd5b5061019960048036038101906101949190611e35565b610781565b005b3480156101a757600080fd5b506101b0610b21565b6040516101bd9190611e1a565b60405180910390f35b3480156101d257600080fd5b506101ed60048036038101906101e89190611ec6565b610b27565b005b3480156101fb57600080fd5b5061021660048036038101906102119190611dcb565b610be5565b6040516102239190611f6a565b60405180910390f35b34801561023857600080fd5b50610241610d95565b005b61025d60048036038101906102589190611dcb565b610da9565b005b34801561026b57600080fd5b5061028660048036038101906102819190611dcb565b611349565b6040516102939190611f94565b60405180910390f35b3480156102a857600080fd5b506102b16114f9565b6040516102be9190611f94565b60405180910390f35b3480156102d357600080fd5b506102ee60048036038101906102e99190611dcb565b611522565b6040516102fb9190611f94565b60405180910390f35b34801561031057600080fd5b5061032b60048036038101906103269190611fe5565b6116d2565b60405161033d96959493929190612012565b60405180910390f35b610360600480360381019061035b9190611dcb565b61177b565b005b34801561036e57600080fd5b50610377611b5f565b6040516103849190611e1a565b60405180910390f35b34801561039957600080fd5b506103b460048036038101906103af9190612073565b611b65565b005b60008083836040516020016103cc929190612109565b6040516020818303038152906040528051906020012090506000600360008381526020019081526020016000206040518060c00160405290816000820160009054906101000a900473ffffffffffffffffffffffffffffffffffffffff1673ffffffffffffffffffffffffffffffffffffffff1673ffffffffffffffffffffffffffffffffffffffff16815260200160018201548152602001600282015481526020016003820160009054906101000a900473ffffffffffffffffffffffffffffffffffffffff1673ffffffffffffffffffffffffffffffffffffffff1673ffffffffffffffffffffffffffffffffffffffff1681526020016004820160009054906101000a900473ffffffffffffffffffffffffffffffffffffffff1673ffffffffffffffffffffffffffffffffffffffff1673ffffffffffffffffffffffffffffffffffffffff1681526020016004820160149054906101000a900460ff16600281111561053f5761053e611ef3565b5b600281111561055157610550611ef3565b5b8152505090506000600281111561056b5761056a611ef3565b5b8160a00151600281111561058257610581611ef3565b5b146105c2576040517f08c379a00000000000000000000000000000000000000000000000000000000081526004016105b9906121b8565b60405180910390fd5b80604001519250505092915050565b60008083836040516020016105e7929190612109565b6040516020818303038152906040528051906020012090506000600360008381526020019081526020016000206040518060c00160405290816000820160009054906101000a900473ffffffffffffffffffffffffffffffffffffffff1673ffffffffffffffffffffffffffffffffffffffff1673ffffffffffffffffffffffffffffffffffffffff16815260200160018201548152602001600282015481526020016003820160009054906101000a900473ffffffffffffffffffffffffffffffffffffffff1673ffffffffffffffffffffffffffffffffffffffff1673ffffffffffffffffffffffffffffffffffffffff1681526020016004820160009054906101000a900473ffffffffffffffffffffffffffffffffffffffff1673ffffffffffffffffffffffffffffffffffffffff1673ffffffffffffffffffffffffffffffffffffffff1681526020016004820160149054906101000a900460ff16600281111561075a57610759611ef3565b5b600281111561076c5761076b611ef3565b5b81525050905080604001519250505092915050565b3373ffffffffffffffffffffffffffffffffffffffff168373ffffffffffffffffffffffffffffffffffffffff16636352211e846040518263ffffffff1660e01b81526004016107d19190611e1a565b602060405180830381865afa1580156107ee573d6000803e3d6000fd5b505050506040513d601f19601f8201168201806040525081019061081291906121ed565b73ffffffffffffffffffffffffffffffffffffffff1614610868576040517f08c379a000000000000000000000000000000000000000000000000000000000815260040161085f90612266565b60405180910390fd5b8273ffffffffffffffffffffffffffffffffffffffff1663e985e9c533306040518363ffffffff1660e01b81526004016108a3929190612286565b602060405180830381865afa1580156108c0573d6000803e3d6000fd5b505050506040513d601f19601f820116820180604052508101906108e491906122e7565b610923576040517f08c379a000000000000000000000000000000000000000000000000000000000815260040161091a90612386565b60405180910390fd5b60008383604051602001610938929190612109565b6040516020818303038152906040528051906020012090506040518060c001604052808573ffffffffffffffffffffffffffffffffffffffff1681526020018481526020018381526020013373ffffffffffffffffffffffffffffffffffffffff168152602001600073ffffffffffffffffffffffffffffffffffffffff168152602001600060028111156109d0576109cf611ef3565b5b8152506003600083815260200190815260200160002060008201518160000160006101000a81548173ffffffffffffffffffffffffffffffffffffffff021916908373ffffffffffffffffffffffffffffffffffffffff160217905550602082015181600101556040820151816002015560608201518160030160006101000a81548173ffffffffffffffffffffffffffffffffffffffff021916908373ffffffffffffffffffffffffffffffffffffffff16021790555060808201518160040160006101000a81548173ffffffffffffffffffffffffffffffffffffffff021916908373ffffffffffffffffffffffffffffffffffffffff16021790555060a08201518160040160146101000a81548160ff02191690836002811115610afa57610af9611ef3565b5b02179055509050506001806000828254610b1491906123d5565b9250508190555050505050565b60025481565b610b2f611be8565b600047905060008273ffffffffffffffffffffffffffffffffffffffff1682604051610b5a9061243a565b60006040518083038185875af1925050503d8060008114610b97576040519150601f19603f3d011682016040523d82523d6000602084013e610b9c565b606091505b5050905080610be0576040517f08c379a0000000000000000000000000000000000000000000000000000000008152600401610bd79061249b565b60405180910390fd5b505050565b6000808383604051602001610bfb929190612109565b6040516020818303038152906040528051906020012090506000600360008381526020019081526020016000206040518060c00160405290816000820160009054906101000a900473ffffffffffffffffffffffffffffffffffffffff1673ffffffffffffffffffffffffffffffffffffffff1673ffffffffffffffffffffffffffffffffffffffff16815260200160018201548152602001600282015481526020016003820160009054906101000a900473ffffffffffffffffffffffffffffffffffffffff1673ffffffffffffffffffffffffffffffffffffffff1673ffffffffffffffffffffffffffffffffffffffff1681526020016004820160009054906101000a900473ffffffffffffffffffffffffffffffffffffffff1673ffffffffffffffffffffffffffffffffffffffff1673ffffffffffffffffffffffffffffffffffffffff1681526020016004820160149054906101000a900460ff166002811115610d6e57610d6d611ef3565b5b6002811115610d8057610d7f611ef3565b5b8152505090508060a001519250505092915050565b610d9d611be8565b610da76000611c66565b565b60008282604051602001610dbe929190612109565b6040516020818303038152906040528051906020012090506000600360008381526020019081526020016000206040518060c00160405290816000820160009054906101000a900473ffffffffffffffffffffffffffffffffffffffff1673ffffffffffffffffffffffffffffffffffffffff1673ffffffffffffffffffffffffffffffffffffffff16815260200160018201548152602001600282015481526020016003820160009054906101000a900473ffffffffffffffffffffffffffffffffffffffff1673ffffffffffffffffffffffffffffffffffffffff1673ffffffffffffffffffffffffffffffffffffffff1681526020016004820160009054906101000a900473ffffffffffffffffffffffffffffffffffffffff1673ffffffffffffffffffffffffffffffffffffffff1673ffffffffffffffffffffffffffffffffffffffff1681526020016004820160149054906101000a900460ff166002811115610f3157610f30611ef3565b5b6002811115610f4357610f42611ef3565b5b8152505090508373ffffffffffffffffffffffffffffffffffffffff1663e985e9c58260600151306040518363ffffffff1660e01b8152600401610f88929190612286565b602060405180830381865afa158015610fa5573d6000803e3d6000fd5b505050506040513d601f19601f82011682018060405250810190610fc991906122e7565b611008576040517f08c379a0000000000000000000000000000000000000000000000000000000008152600401610fff9061252d565b60405180910390fd5b806040015134101561104f576040517f08c379a000000000000000000000000000000000000000000000000000000000815260040161104690612599565b60405180910390fd5b6000600281111561106357611062611ef3565b5b8160a00151600281111561107a57611079611ef3565b5b146110ba576040517f08c379a00000000000000000000000000000000000000000000000000000000081526004016110b190612605565b60405180910390fd5b806060015173ffffffffffffffffffffffffffffffffffffffff166108fc60646063346110e79190612625565b6110f19190612696565b9081150290604051600060405180830381858888f1935050505015801561111c573d6000803e3d6000fd5b508373ffffffffffffffffffffffffffffffffffffffff166323b872dd826060015133866040518463ffffffff1660e01b815260040161115e939291906126c7565b600060405180830381600087803b15801561117857600080fd5b505af115801561118c573d6000803e3d6000fd5b5050505033816080019073ffffffffffffffffffffffffffffffffffffffff16908173ffffffffffffffffffffffffffffffffffffffff168152505060018160a0019060028111156111e1576111e0611ef3565b5b908160028111156111f5576111f4611ef3565b5b81525050806003600084815260200190815260200160002060008201518160000160006101000a81548173ffffffffffffffffffffffffffffffffffffffff021916908373ffffffffffffffffffffffffffffffffffffffff160217905550602082015181600101556040820151816002015560608201518160030160006101000a81548173ffffffffffffffffffffffffffffffffffffffff021916908373ffffffffffffffffffffffffffffffffffffffff16021790555060808201518160040160006101000a81548173ffffffffffffffffffffffffffffffffffffffff021916908373ffffffffffffffffffffffffffffffffffffffff16021790555060a08201518160040160146101000a81548160ff0219169083600281111561132157611320611ef3565b5b021790555090505060016002600082825461133c91906123d5565b9250508190555050505050565b600080838360405160200161135f929190612109565b6040516020818303038152906040528051906020012090506000600360008381526020019081526020016000206040518060c00160405290816000820160009054906101000a900473ffffffffffffffffffffffffffffffffffffffff1673ffffffffffffffffffffffffffffffffffffffff1673ffffffffffffffffffffffffffffffffffffffff16815260200160018201548152602001600282015481526020016003820160009054906101000a900473ffffffffffffffffffffffffffffffffffffffff1673ffffffffffffffffffffffffffffffffffffffff1673ffffffffffffffffffffffffffffffffffffffff1681526020016004820160009054906101000a900473ffffffffffffffffffffffffffffffffffffffff1673ffffffffffffffffffffffffffffffffffffffff1673ffffffffffffffffffffffffffffffffffffffff1681526020016004820160149054906101000a900460ff1660028111156114d2576114d1611ef3565b5b60028111156114e4576114e3611ef3565b5b81525050905080608001519250505092915050565b60008060009054906101000a900473ffffffffffffffffffffffffffffffffffffffff16905090565b6000808383604051602001611538929190612109565b6040516020818303038152906040528051906020012090506000600360008381526020019081526020016000206040518060c00160405290816000820160009054906101000a900473ffffffffffffffffffffffffffffffffffffffff1673ffffffffffffffffffffffffffffffffffffffff1673ffffffffffffffffffffffffffffffffffffffff16815260200160018201548152602001600282015481526020016003820160009054906101000a900473ffffffffffffffffffffffffffffffffffffffff1673ffffffffffffffffffffffffffffffffffffffff1673ffffffffffffffffffffffffffffffffffffffff1681526020016004820160009054906101000a900473ffffffffffffffffffffffffffffffffffffffff1673ffffffffffffffffffffffffffffffffffffffff1673ffffffffffffffffffffffffffffffffffffffff1681526020016004820160149054906101000a900460ff1660028111156116ab576116aa611ef3565b5b60028111156116bd576116bc611ef3565b5b81525050905080606001519250505092915050565b60036020528060005260406000206000915090508060000160009054906101000a900473ffffffffffffffffffffffffffffffffffffffff16908060010154908060020154908060030160009054906101000a900473ffffffffffffffffffffffffffffffffffffffff16908060040160009054906101000a900473ffffffffffffffffffffffffffffffffffffffff16908060040160149054906101000a900460ff16905086565b60008282604051602001611790929190612109565b6040516020818303038152906040528051906020012090506000600360008381526020019081526020016000206040518060c00160405290816000820160009054906101000a900473ffffffffffffffffffffffffffffffffffffffff1673ffffffffffffffffffffffffffffffffffffffff1673ffffffffffffffffffffffffffffffffffffffff16815260200160018201548152602001600282015481526020016003820160009054906101000a900473ffffffffffffffffffffffffffffffffffffffff1673ffffffffffffffffffffffffffffffffffffffff1673ffffffffffffffffffffffffffffffffffffffff1681526020016004820160009054906101000a900473ffffffffffffffffffffffffffffffffffffffff1673ffffffffffffffffffffffffffffffffffffffff1673ffffffffffffffffffffffffffffffffffffffff1681526020016004820160149054906101000a900460ff16600281111561190357611902611ef3565b5b600281111561191557611914611ef3565b5b8152505090503373ffffffffffffffffffffffffffffffffffffffff16816060015173ffffffffffffffffffffffffffffffffffffffff161461198d576040517f08c379a000000000000000000000000000000000000000000000000000000000815260040161198490612770565b60405180910390fd5b600060028111156119a1576119a0611ef3565b5b8160a0015160028111156119b8576119b7611ef3565b5b146119f8576040517f08c379a00000000000000000000000000000000000000000000000000000000081526004016119ef90612802565b60405180910390fd5b60028160a001906002811115611a1157611a10611ef3565b5b90816002811115611a2557611a24611ef3565b5b81525050806003600084815260200190815260200160002060008201518160000160006101000a81548173ffffffffffffffffffffffffffffffffffffffff021916908373ffffffffffffffffffffffffffffffffffffffff160217905550602082015181600101556040820151816002015560608201518160030160006101000a81548173ffffffffffffffffffffffffffffffffffffffff021916908373ffffffffffffffffffffffffffffffffffffffff16021790555060808201518160040160006101000a81548173ffffffffffffffffffffffffffffffffffffffff021916908373ffffffffffffffffffffffffffffffffffffffff16021790555060a08201518160040160146101000a81548160ff02191690836002811115611b5157611b50611ef3565b5b021790555090505050505050565b60015481565b611b6d611be8565b600073ffffffffffffffffffffffffffffffffffffffff168173ffffffffffffffffffffffffffffffffffffffff1603611bdc576040517f08c379a0000000000000000000000000000000000000000000000000000000008152600401611bd390612894565b60405180910390fd5b611be581611c66565b50565b611bf0611d2a565b73ffffffffffffffffffffffffffffffffffffffff16611c0e6114f9565b73ffffffffffffffffffffffffffffffffffffffff1614611c64576040517f08c379a0000000000000000000000000000000000000000000000000000000008152600401611c5b90612900565b60405180910390fd5b565b60008060009054906101000a900473ffffffffffffffffffffffffffffffffffffffff169050816000806101000a81548173ffffffffffffffffffffffffffffffffffffffff021916908373ffffffffffffffffffffffffffffffffffffffff1602179055508173ffffffffffffffffffffffffffffffffffffffff168173ffffffffffffffffffffffffffffffffffffffff167f8be0079c531659141344cd1fd0a4f28419497f9722a3daafe3b4186f6b6457e060405160405180910390a35050565b600033905090565b600080fd5b600073ffffffffffffffffffffffffffffffffffffffff82169050919050565b6000611d6282611d37565b9050919050565b611d7281611d57565b8114611d7d57600080fd5b50565b600081359050611d8f81611d69565b92915050565b6000819050919050565b611da881611d95565b8114611db357600080fd5b50565b600081359050611dc581611d9f565b92915050565b60008060408385031215611de257611de1611d32565b5b6000611df085828601611d80565b9250506020611e0185828601611db6565b9150509250929050565b611e1481611d95565b82525050565b6000602082019050611e2f6000830184611e0b565b92915050565b600080600060608486031215611e4e57611e4d611d32565b5b6000611e5c86828701611d80565b9350506020611e6d86828701611db6565b9250506040611e7e86828701611db6565b9150509250925092565b6000611e9382611d37565b9050919050565b611ea381611e88565b8114611eae57600080fd5b50565b600081359050611ec081611e9a565b92915050565b600060208284031215611edc57611edb611d32565b5b6000611eea84828501611eb1565b91505092915050565b7f4e487b7100000000000000000000000000000000000000000000000000000000600052602160045260246000fd5b60038110611f3357611f32611ef3565b5b50565b6000819050611f4482611f22565b919050565b6000611f5482611f36565b9050919050565b611f6481611f49565b82525050565b6000602082019050611f7f6000830184611f5b565b92915050565b611f8e81611d57565b82525050565b6000602082019050611fa96000830184611f85565b92915050565b6000819050919050565b611fc281611faf565b8114611fcd57600080fd5b50565b600081359050611fdf81611fb9565b92915050565b600060208284031215611ffb57611ffa611d32565b5b600061200984828501611fd0565b91505092915050565b600060c0820190506120276000830189611f85565b6120346020830188611e0b565b6120416040830187611e0b565b61204e6060830186611f85565b61205b6080830185611f85565b61206860a0830184611f5b565b979650505050505050565b60006020828403121561208957612088611d32565b5b600061209784828501611d80565b91505092915050565b60008160601b9050919050565b60006120b8826120a0565b9050919050565b60006120ca826120ad565b9050919050565b6120e26120dd82611d57565b6120bf565b82525050565b6000819050919050565b6121036120fe82611d95565b6120e8565b82525050565b600061211582856120d1565b60148201915061212582846120f2565b6020820191508190509392505050565b600082825260208201905092915050565b7f546f6b656e20646f6573206e6f74206861766520616e20616374697665206c6960008201527f7374696e67000000000000000000000000000000000000000000000000000000602082015250565b60006121a2602583612135565b91506121ad82612146565b604082019050919050565b600060208201905081810360008301526121d181612195565b9050919050565b6000815190506121e781611d69565b92915050565b60006020828403121561220357612202611d32565b5b6000612211848285016121d8565b91505092915050565b7f53656c6c6572206d757374206265206f776e6572206f6620746f6b656e000000600082015250565b6000612250601d83612135565b915061225b8261221a565b602082019050919050565b6000602082019050818103600083015261227f81612243565b9050919050565b600060408201905061229b6000830185611f85565b6122a86020830184611f85565b9392505050565b60008115159050919050565b6122c4816122af565b81146122cf57600080fd5b50565b6000815190506122e1816122bb565b92915050565b6000602082840312156122fd576122fc611d32565b5b600061230b848285016122d2565b91505092915050565b7f4e65787573206d7573742062652073657420746f206f70657261746f7220666f60008201527f7220636f6c6c656374696f6e0000000000000000000000000000000000000000602082015250565b6000612370602c83612135565b915061237b82612314565b604082019050919050565b6000602082019050818103600083015261239f81612363565b9050919050565b7f4e487b7100000000000000000000000000000000000000000000000000000000600052601160045260246000fd5b60006123e082611d95565b91506123eb83611d95565b9250828201905080821115612403576124026123a6565b5b92915050565b600081905092915050565b50565b6000612424600083612409565b915061242f82612414565b600082019050919050565b600061244582612417565b9150819050919050565b7f4661696c656420746f2073656e74204574686572000000000000000000000000600082015250565b6000612485601483612135565b91506124908261244f565b602082019050919050565b600060208201905081810360008301526124b481612478565b9050919050565b7f436f6c6c656374696f6e206973206e6f7420617070726f76656420666f72207360008201527f70656e64696e6700000000000000000000000000000000000000000000000000602082015250565b6000612517602783612135565b9150612522826124bb565b604082019050919050565b600060208201905081810360008301526125468161250a565b9050919050565b7f496e73756666696369656e742076616c75650000000000000000000000000000600082015250565b6000612583601283612135565b915061258e8261254d565b602082019050919050565b600060208201905081810360008301526125b281612576565b9050919050565b7f4c697374696e67206973206e6f74206163746976650000000000000000000000600082015250565b60006125ef601583612135565b91506125fa826125b9565b602082019050919050565b6000602082019050818103600083015261261e816125e2565b9050919050565b600061263082611d95565b915061263b83611d95565b925082820261264981611d95565b915082820484148315176126605761265f6123a6565b5b5092915050565b7f4e487b7100000000000000000000000000000000000000000000000000000000600052601260045260246000fd5b60006126a182611d95565b91506126ac83611d95565b9250826126bc576126bb612667565b5b828204905092915050565b60006060820190506126dc6000830186611f85565b6126e96020830185611f85565b6126f66040830184611e0b565b949350505050565b7f43616e6e6f742063616e63656c206c697374696e67206966206e6f74206f726960008201527f67696e616c2073656c6c65720000000000000000000000000000000000000000602082015250565b600061275a602c83612135565b9150612765826126fe565b604082019050919050565b600060208201905081810360008301526127898161274d565b9050919050565b7f4c697374696e67206d7573742062652061637469766520696e206f726465722060008201527f746f2063616e63656c0000000000000000000000000000000000000000000000602082015250565b60006127ec602983612135565b91506127f782612790565b604082019050919050565b6000602082019050818103600083015261281b816127df565b9050919050565b7f4f776e61626c653a206e6577206f776e657220697320746865207a65726f206160008201527f6464726573730000000000000000000000000000000000000000000000000000602082015250565b600061287e602683612135565b915061288982612822565b604082019050919050565b600060208201905081810360008301526128ad81612871565b9050919050565b7f4f776e61626c653a2063616c6c6572206973206e6f7420746865206f776e6572600082015250565b60006128ea602083612135565b91506128f5826128b4565b602082019050919050565b60006020820190508181036000830152612919816128dd565b905091905056fea26469706673582212209cfa08ec3b0ecce65a24b2a757c4533f7936615ab256ac7ad403105c86d06e1064736f6c63430008110033",
  "linkReferences": {},
  "deployedLinkReferences": {}
}